:1000000000308A00192800002B3084008313000878
:10001000031918280130F800F701F70B0D28F80B29
:100020000C284A30F700F70B13281628800B0A28F3
:10003000402803081F39830007309F008313EE30E8
:10004000A1002830A200CD30A3006D30A4002B30D9
:10005000A5006730A600E730A7002C30A800EF30DD
:10006000A900AA0121302A07840083130008AB00ED
:100070008316860183122B088600C830AB00042843
:100080002A08073C031C472801302A07482800306B
:06009000AA003228630003
:02400E00693F08
:00000001FF
;PIC16F628A
;CRC=7713  CREATED="21-nov-22 00:19"
